:100000000C948D000C94B5000C94B5000C94BC03BA
:100010000C94BC030C94BC030C94B5000C94CB0260
:100020000C94B5000C94B5000C94B5000C94BC0471
:100030000C94B5000C94B5000C94B5000C94B5006C
:100040000C9481020C94B5000C948A030C94640304
:100050000C94B5000C94B5000C94B5000C94B5004C
:100060000C94B5000C94B500A80FC20FD70FF20F77
:10007000FD0F57105E10681073107D107D107D10FD
:100080007D107D107D107D107D107D107D107D1008
:100090007D107D107D107D107D107D107D107D10F8
:1000A0007D107D107D107D10A80FBD0FC20FD70FE2
:1000B000F20FFD0F181023102E1000000000240076
:1000C00027002A00000000080002010000030407C6
:1000D00000000000000000000200000000230026D5
:1000E00000290000000000250028002B0004040463
:1000F00004040404040202020202020303030303D1
:1001000003010204081020408001020408102001AD
:10011000020408102000E012BE1211241FBECFEF0F
:10012000D8E0DEBFCDBF12E0A0E0B1E0EAEEF3E33D
:1001300002C005900D92A632B107D9F724E0A6E2DD
:10014000B2E001C01D92A030B207E1F710E0CCE8A8
:10015000D0E004C02197FE010E94CB17CB38D10715
:10016000C9F70E94FE0B0C94E8190C940000CF9282
:10017000DF92EF92FF920F931F93CF93DF936C0167
:100180007A018B01C0E0D0E0CE15DF0581F0D80107
:100190006D918D01D601ED91FC910190F081E02DE2
:1001A000C6010995892B11F02196EECF7E01C7017A
:1001B000DF91CF911F910F91FF90EF90DF90CF9043
:1001C0000895FC01538D448D252F30E0842F90E05D
:1001D000821B930B541710F0CF9608950197089542
:1001E000FC01918D828D981761F0828DDF01A80F3F
:1001F000B11D5D968C91928D9F5F9F73928F90E061
:1002000008958FEF9FEF0895FC01918D828D9817CF
:1002100031F0828DE80FF11D858D90E008958FEF0C
:100220009FEF0895FC01918D228D892F90E0805CD5
:100230009F4F821B91098F73992708958DE792E054
:100240000E94120121E0892B09F420E0822F0895F9
:10025000FC01848DDF01A80FB11DA35ABF4F2C9163
:10026000848D90E001968F739927848FA689B78932
:100270002C93A089B1898C91837080648C93938D29
:10028000848D981306C00288F389E02D80818F7DCC
:1002900080830895EF92FF920F931F93CF93DF9384
:1002A000EC0181E0888F9B8D8C8D981305C0E889C7
:1002B000F989808185FD26C0F62E0B8D10E00F5F39
:1002C0001F4F0F731127E02E8C8DE8120CC00FB654
:1002D00007FCFACFE889F989808185FFF5CFCE0147
:1002E0000E942801F1CF8B8DFE01E80FF11DE35A2A
:1002F000FF4FF0829FB7F8940B8FEA89FB898081CA
:1003000080620AC09FB7F894EE89FF896083E8890C
:10031000F98980818370806480839FBF81E090E051
:10032000DF91CF911F910F91FF90EF900895CF93A0
:10033000DF93EC01888D8823C9F0EA89FB898081ED
:1003400085FD05C0A889B9898C9186FD0FC00FB6BF
:1003500007FCF5CF808185FFF2CFA889B9898C9100
:1003600085FFEDCFCE010E942801E7CFDF91CF912D
:10037000089580E090E0892B29F00E941E018111F0
:100380000C94000008952091690230916A022817A8
:10039000390771F49091670280916802981741F0D3
:1003A000E0916702F0E0E95DFD4F808190E0089503
:1003B0008FEF9FEF089508951F93CF93DF93DC0194
:1003C0005C968D919C915D97009739F421E030E027
:1003D00013963C932E9312973BC05196ED91FC914E
:1003E000529750962C915097322F30951FB75E96AA
:1003F0004C915E97742F727041FD6095F894408126
:10040000772311F0422B01C043234083EC01219755
:10041000F1F748E0508160FF02C0522B01C0532326
:100420005083EC012197F1F76695415099F780814F
:10043000772319F08323808302C0282B20831FBFDA
:100440005C968D919C915D970197F1F781E090E02A
:10045000DF91CF911F9108952091690230916A0236
:100460002817390771F4809168022091670290E0A3
:10047000805C9F4F821B910960E470E00E94B71777
:10048000089580E090E008952091690230916A0219
:1004900028173907B9F4909167028091680298177C
:1004A00089F0E0916702F0E0E95DFD4F80812091E5
:1004B000670230E02F5F3F4F2F733327209367028F
:1004C00090E008958FEF9FEF0895089580E090E009
:1004D0000895CF93DF93EC0160E08E810E940408C1
:1004E00061E08E810E94040860E08E810E94040811
:1004F0008BE891E00197F1F7DF91CF9108950E9489
:10050000D3191F920F920FB60F9211242F933F937E
:100510008F939F93AF93BF9380916E0290916F02E0
:10052000A0917002B091710230916D0223E0230F0F
:100530002D3720F40196A11DB11D05C026E8230F1B
:100540000296A11DB11D20936D0280936E029093BF
:100550006F02A0937002B093710280917202909129
:100560007302A0917402B09175020196A11DB11D94
:100570008093720290937302A0937402B0937502F9
:10058000BF91AF919F918F913F912F910F900FBE8F
:100590000F901F9018951F920F920FB60F92112473
:1005A0002F933F934F935F936F937F938F939F937B
:1005B000AF93BF93EF93FF938091790290917A026A
:1005C000A0917B02B0917C02892B8A2B8B2B59F155
:1005D00090917602E0917702F091780280818927EC
:1005E00080838091790290917A02A0917B02B091F0
:1005F0007C02181619061A061B060CF03DC08091E5
:10060000790290917A02A0917B02B0917C020197CD
:10061000A109B1098093790290937A02A0937B0299
:10062000B0937C0229C080910001E8EDF0E0E491F4
:100630009FEF90930001E130B9F098F0E230C9F4F7
:10064000909170009D7F9093700091E09093B00026
:100650009091B100987F94609093B1001092B30094
:1006600008C010926E0005C090916F009D7F90931E
:100670006F0060E00E940408FF91EF91BF91AF917D
:100680009F918F917F916F915F914F913F912F91AA
:100690000F900FBE0F901F9018956115710579F09E
:1006A000FB0101900020E9F73197AF01461B570B82
:1006B000DC01ED91FC910280F381E02D099480E052
:1006C00090E008950C944D031F920F920FB60F9275
:1006D00011242F933F934F935F936F937F938F9347
:1006E0009F93AF93BF93EF93FF938DE792E00E94A8
:1006F0002801FF91EF91BF91AF919F918F917F91D1
:100700006F915F914F913F912F910F900FBE0F907E
:100710001F9018951F920F920FB60F9211242F93CE
:100720008F939F93EF93FF93E0918D02F0918E0250
:100730008081E0919302F091940282FD12C0908139
:10074000809196028F5F8F7320919702821751F0EC
:10075000E0919602F0E0E358FD4F958F809396026A
:1007600001C08081FF91EF919F918F912F910F9008
:100770000FBE0F901F9018951F920F920FB60F92F9
:1007800011242F933F934F935F936F937F938F9396
:100790009F93AF93BF93EF93FF93E0916902F09122
:1007A0006A02309709F451C0968DA685B785858574
:1007B00091FF04C09C91892329F447C09C9189230F
:1007C00009F043C0A389B4899C91858980958923C8
:1007D0008C93868997890197F1F7608D718DA68535
:1007E000B785558538E020E0CB010197F1F7822FDE
:1007F00090E095958795282F4C91452309F0206826
:10080000315091F7868D81FD20958091680290E0AE
:1008100001968F73992730916702381749F0A0919C
:100820006802B0E0A95DBD4F2C938093680203C0BD
:10083000868D8160868F828D938D0197F1F7A389D4
:10084000B4899C918589892B8C93FF91EF91BF91FD
:10085000AF919F918F917F916F915F914F913F9158
:100860002F910F900FBE0F901F901895CF92DF928F
:10087000EF92FF920F931F93CF93DF936C017C0154
:1008800087E0E80EF11CC0E0D0E0062F10E0B801D0
:100890000C2E02C0759567950A94E2F76170F70116
:1008A00081917F010E9404082196C430D10579F717
:1008B000C601DF91CF911F910F91FF90EF90DF90D4
:1008C000CF900C946902CF92DF92EF92FF920F9338
:1008D0001F93CF93DF93EC01F62E642F8C810E943F
:1008E00004088D818F3F19F060E00E9404088F8515
:1008F0000F2D10E084FF25C06E0187E0C80ED11CCB
:10090000E12CF12CB8010E2C02C0759567950A9464
:10091000E2F76170F60181916F010E940408FFEF18
:10092000EF1AFF0A88E0E816F10461F7CE01DF91C3
:10093000CF911F910F91FF90EF90DF90CF900C948B
:100940006902B80184E0759567958A95E1F7CE0153
:100950000E9436046F2DCE01DF91CF911F910F9130
:10096000FF90EF90DF90CF900C94360441E00E940E
:10097000630481E090E008951F920F920FB60F92EA
:1009800011242F933F934F935F936F937F938F9394
:100990009F93AF93BF93EF93FF938091260287FFBE
:1009A00005C010928500109284001BC02091260281
:1009B000022E000C330B80913E0390E0281739077C
:1009C00084F480912602082E000C990BFC01EE0F96
:1009D000FF1F8E0F9F1FFC01E65EFC4F808186FD8E
:1009E00015C0809126028F5F8093260220912602F7
:1009F000022E000C330B80913E0390E0281739073C
:100A0000C4F4809126028C3064F113C080912602D8
:100A1000082E000C990BFC01EE0FFF1F8E0F9F1F7D
:100A2000FC01E65EFC4F808160E08F730E94040849
:100A3000D8CF8091840090918500049680349C49A1
:100A400018F480E49CE905C08091840090918500B1
:100A5000049690938900809388008FEF80932602FC
:100A60003BC0209184003091850080912602082EA1
:100A7000000C990BFC01EE0FFF1F8E0F9F1FFC0156
:100A8000E65EFC4F81819281820F931F90938900D3
:100A90008093880080912602082E000C990BFC019F
:100AA000EE0FFF1F8E0F9F1FFC01E65EFC4F808143
:100AB00086FF12C080912602082E000C990BFC01C3
:100AC000EE0FFF1F8E0F9F1FFC01E65EFC4F808123
:100AD00061E08F730E940408FF91EF91BF91AF9185
:100AE0009F918F917F916F915F914F913F912F9146
:100AF0000F900FBE0F901F9018953FB7F8948091FC
:100B0000720290917302A0917402B091750226B5A1
:100B1000A89B05C02F3F19F00196A11DB11D3FBF35
:100B2000BA2FA92F982F8827820F911DA11DB11DC3
:100B3000BC01CD0142E0660F771F881F991F4A95BF
:100B4000D1F7089540E0682F87ED93E00C9463049B
:100B500081E00E94A2058BE39FE10197F1F70895E0
:100B6000843008F083E09091EA03891710F08FEF4A
:100B7000890FE82FF0E0E952FC4F848980680C94DB
:100B8000A2052F923F924F925F926F927F928F9227
:100B90009F92AF92BF92CF92DF92EF92FF920F930C
:100BA0001F93CF93DF93CDB7DEB7A4970FB6F8941A
:100BB000DEBF0FBECDBF4B015C01F42E9B01AC012B
:100BC0000E949617882319F069E172E027C024017A
:100BD0003501E89477F82FEF3FEF4FE75FE7C30168
:100BE000B2010E94961781110DC02FEF3FEF4FE722
:100BF0005FE7C301B2010E94BE1418161CF46DE138
:100C000072E00CC02FEF3FEF4FE75FE4C501B40186
:100C10000E94911718163CF461E272E08DE792E0B1
:100C20000E944D03BCC02FEF3FEF4FE75FECC501C3
:100C3000B4010E94BE1487FDEFCF20E030E0A9018F
:100C4000C501B4010E94BE1487FF0BC06DE28DE7A1
:100C500092E00E944A013C01B7FAB094B7F8B09410
:100C600002C0612C712C10E060E070E080E09FE336
:100C7000F11641F020E030E040E251E40E94E91634
:100C80001F5FF6CFA50194010E947D164B015C0108
:100C90000E9462176AA3C72ED82EE92E19A2262F0A
:100CA000372F482F592F8E010F5D1F4F0BA31CA309
:100CB0009AE0292E312C412C512CCA01B901A201F4
:100CC00091010E944B16605DF80162938F0121151E
:100CD00031054105510589F7BF018DE792E00E947A
:100CE0004D038301080F191FFF2009F457C06AA1A3
:100CF0007C2D8D2D9E2D0E94C3149B01AC01C5013E
:100D0000B4010E947C164B015C016EE28DE792E01B
:100D10000E944A01080F191F8AE0282E312C412C0D
:100D2000512C20E030E040E251E4C501B4010E94C2
:100D300024154B015C010E9462179B0140E050E0CA
:100D400019A2CBA0DCA0762E3AA3642EE52ECA0110
:100D5000B901A20191010E944B16605DF6016293F8
:100D60006F01211531054105510589F7BF018DE757
:100D700092E00E944D03080F191F672D7AA1862D5E
:100D80009E2D0E94C3149B01AC01C501B4010E94B9
:100D90007C164B015C01FA94F110C3CFC801A496F4
:100DA0000FB6F894DEBF0FBECDBFDF91CF911F917C
:100DB0000F91FF90EF90DF90CF90BF90AF909F90FA
:100DC0008F907F906F905F904F903F902F900895FD
:100DD000CF92DF92EF92FF920F931F93CF93DF9307
:100DE000C0919B03CD3219F4ECE9F3E002C0EBE9CA
:100DF000F3E08F0120E030E0A901D801DD918D0101
:100E000080ED8D0F8A30B0F4AAE0B0E00E940116A8
:100E1000CD2EDD0FDD08EE08FF08DC01CB018C0DC7
:100E20009D1DAE1DBF1D9C01AD012053310941091F
:100E30005109E3CFA4E6B0E00E940116DF01219141
:100E400030ED320F3A30D0F32E3269F511962C91F5
:100E5000119730ED320F3A3030F5022E000C330B83
:100E6000205331094AE0429F8001439F100D112415
:100E7000012E000C220B330B600F711F821F931F7A
:100E800012960C9120ED200F2A3068F4002E000CF1
:100E9000110B00531109012E000C220B330B600FB4
:100EA000711F821F931FCD3239F4909580957095F4
:100EB00061957F4F8F4F9F4FDF91CF911F910F9182
:100EC000FF90EF90DF90CF9008954F925F926F92D6
:100ED0007F928F929F92AF92BF92CF92DF92EF92CA
:100EE000FF921F93CF93DF93CBE9D3E0FE01812CD8
:100EF000912C5401119180ED810F8A30A8F4AAE061
:100F0000B0E0A50194010E940116812E110F9908ED
:100F1000AA08BB08860E971EA81EB91E80E3881A71
:100F20009108A108B108E6CFC501B40124E630E07C
:100F300040E050E00E944B169B01AC0160EA76E86D
:100F400081E090E00E949B176B017C019E018991DA
:100F500090ED980F9A30D0F38E3221F5E901219669
:100F600080E1482E87E2582E612C712CA99180EDEA
:100F70008A0F8A30B8F40A2E000CBB0BD097A3015D
:100F800092010E940C16C60ED71EE81EF91EC30160
:100F9000B2012AE030E040E050E00E944B16290107
:100FA0003A01E4CFC501B40124E630E040E050E06E
:100FB0000E944B1660E472E48FE090E00E949B1761
:100FC0004B015C01C701B6016D5F7F4F8F4F9F4F93
:100FD00026E030E040E050E00E944B16C501B4012D
:100FE000620F731F841F951FDF91CF911F91FF9098
:100FF000EF90DF90CF90BF90AF909F908F907F90B9
:101000006F905F904F90089590E0FC01EC53FF4F7C
:101010002491FC01EF5FFE4F3491FC01E351FF4F3F
:10102000E491EE2309F43CC0222339F1233091F0FE
:1010300038F42130A9F0223001F584B58F7D12C03B
:10104000273091F02830A1F02430B9F4809180004D
:101050008F7D03C0809180008F77809380000DC0CA
:1010600084B58F7784BD09C08091B0008F7703C0AD
:101070008091B0008F7D8093B000F0E0EE0FFF1FF5
:10108000ED51FF4FA591B4919FB7F894611104C041
:101090008C913095382302C0EC913E2B3C939FBF3E
:1010A0000895CF93DF9390E0FC01EF5FFE4F249112
:1010B000FC01E351FF4F8491882361F190E0880F98
:1010C000991FFC01E654FF4FC591D491FC01ED51ED
:1010D000FF4FA591B491611109C09FB7F894888121
:1010E000209582238883EC912E230BC0623061F41B
:1010F0009FB7F8948881322F309583238883EC91B1
:101100002E2B2C939FBF06C08FB7F894E8812E2B0F
:1011100028838FBFDF91CF910895CF93DF93623003
:1011200028F09091E60398609093E6036093EA03B9
:101130001092EB0390E49093EC038093ED0390E026
:10114000805C9F4F8093EE0361E08091DB030E94FF
:1011500051088091DC038F3F19F061E00E94510833
:1011600061E08091DD030E945108C7EDD3E09E014C
:10117000275D33408091E60384FD03C084E090E066
:1011800002C088E090E02196281739072CF461E02E
:101190008E810E945108EBCF8BE39DE00197F1F720
:1011A00060E08091DB030E94040860E08091DD0331
:1011B0000E9404088091DC038F3F19F060E00E94D8
:1011C00004088091E60384FD20C063E087ED93E08E
:1011D0000E943604CBE4D6E4CE010197F1F763E038
:1011E00087ED93E00E9436042197F1F763E087EDE5
:1011F00093E00E94360483E592E00197F1F762E004
:1012000087ED93E00E94360415C080620E94A2051B
:101210008BE496E40197F1F78091E60380620E94E7
:10122000A20583E592E00197F1F78091E6038062E1
:101230000E94A2058091E60380620E94A20584E0DC
:101240008093E7038CE00E94A2050E94A80582E03B
:101250008093E80386E0DF91CF910C94A2054F9232
:101260005F926F927F928F929F92AF92BF92CF9236
:10127000DF92EF92FF920F931F93CF93DF9300D0F3
:1012800000D01F92CDB7DEB78C012A013B018091BF
:101290000001863021F08F3F09F03DC205C0E8ED26
:1012A000F0E024912D8372C086E080930001E8ED88
:1012B000F0E084918D838F3F09F42DC2813009F4D1
:1012C00041C038F1823009F061C01092B000109234
:1012D000B1008091B00082608093B0008091B10035
:1012E00081608093B100E3EFF0E0E491F0E0EE0F75
:1012F000FF1FED51FF4F8591949190937802809359
:101300007702E7E0F1E0E491E093760222E02D83BA
:10131000FDC114BC15BC84B5826084BD85B58160F7
:1013200085BDE3EFF0E0E491F0E0EE0FFF1FED513B
:10133000FF4F85919491E7E0F1E0E491E093F303AE
:101340001D82E4C110928000109281008091810082
:10135000886080938100809181008160809381000A
:10136000E3EFF0E0E491F0E0EE0FFF1FED51FF4FEF
:1013700085919491E7E0F1E0E491E093F20361E07C
:1013800086E00E94510891E09D838AC08D8187FD8F
:10139000C2C161E086E00E9451088D818D7F09F015
:1013A0007FC04801A12CB12C60E072E18AE790E097
:1013B000A50194010E94E21529833A834B835C8343
:1013C00069017A0191E0C91AD108E108F1082FEF0B
:1013D000C216D104E104F10409F008F44EC060E43F
:1013E00072E48FE090E0A50194010E94E21569018A
:1013F0007A0181E0C81AD108E108F1089D81923094
:1014000009F52FEFC216D104E104F10409F008F444
:1014100044C160E970ED83E090E0A50194010E9471
:10142000E21569017A0181E0C81AD108E108F108E2
:101430009FEFC916D104E104F10411F008F0BAC01D
:1014400083E027C02FEFC216D104E104F104B9F004
:10145000B0F068E478EE81E090E0A50194010E948C
:10146000E21569017A0181E0C81AD108E108F108A2
:101470009D81992309F413C1DCC081E001C082E0A1
:101480009D81911106C095B5987F892B85BD44C07B
:1014900085E09091B100987F892B8093B1003CC08A
:1014A0004801A12CB12C60E072E18AE790E0A5012F
:1014B00094010E94E21569017A0181E0C81AD108FD
:1014C000E108F108C114D10491E0E906F10488F0C3
:1014D00068E478EE81E090E0A50194010E94E215B5
:1014E00069017A0181E0C81AD108E108F10883E0B6
:1014F00001C081E09D81913079F490918100987FC5
:10150000892B80938100411451046104710449F4D2
:101510002FEF3FEFA9012CC0411451046104710465
:1015200071F0D801AA0FBB1FA30192010E940116FE
:1015300028EE33E040E050E00E944B1603C02FEF4E
:101540003FEFA9018D81813099F0823019F181112D
:10155000E2C0C7BC2093F8033093F9034093FA0329
:101560005093FB0380916E00826080936E00D3C025
:10157000D0928900C09288002093F4033093F50341
:101580004093F6035093F70380916F00826080933D
:101590006F00C1C0C092B3002093790230937A02E9
:1015A00040937B0250937C02809170008260809314
:1015B0007000B1C068E478EE81E090E0A50194018C
:1015C0000E94E21569017A0191E0C91AD108E10887
:1015D000F1082FEFC216D104E104F10441F138F112
:1015E00064E274EF80E090E0A50194010E94E215AE
:1015F00069017A0181E0C81AD108E108F1089FEF7A
:10160000C916D104E104F10409F008F441CF62E104
:101610007AE780E090E0A50194010E94E21569015B
:101620007A0181E0C81AD108E108F10819C084E004
:1016300030CF2FEFC216D104E104F10409F008F411
:1016400063C062E17AE780E090E0A50194010E9426
:10165000E21569017A0191E0C91AD108E108F1089F
:101660008FEFC816D104E104F104A9F0A0F089813C
:101670009A81AB81BC812AE0B595A795979587950E
:101680002A95D1F76C017D0121E0C21AD108E10849
:10169000F10887E0FECE86E0FCCE82E0FACE8FEF46
:1016A000C816D104E104F10469F160F162E17AE75E
:1016B00080E090E0A50194010E94E21569017A01A1
:1016C00091E0C91AD108E108F1082FEFC216D10440
:1016D000E104F104A9F0A0F089819A81AB81BC8179
:1016E0003AE0B595A795979587953A95D1F76C010E
:1016F0007D0121E0C21AD108E108F10885E0C3CEDE
:1017000084E0C1CE83E0BFCE84E0BACE61E086E063
:101710000E94510846CE0F900F900F900F900F909F
:10172000DF91CF911F910F91FF90EF90DF90CF90BD
:10173000BF90AF909F908F907F906F905F904F90F1
:1017400008958E3008F08E508770806480937C00FE
:1017500080917A00806480937A0080917A0086FD7F
:10176000FCCF809178002091790090E0922B089531
:101770008F929F92AF92BF92CF92DF92EF92FF92A1
:101780006B017C010E947D054B015C01C114D104F9
:10179000E104F104F1F00E947D05DC01CB01881920
:1017A0009909AA09BB09883E9340A105B10570F3C8
:1017B00021E0C21AD108E108F10888EE880E83E022
:1017C000981EA11CB11CC114D104E104F10419F745
:1017D000DDCFFF90EF90DF90CF90BF90AF909F90C4
:1017E0008F9008952FB7F89460916E0270916F02F8
:1017F00080917002909171022FBF0895789484B502
:10180000826084BD84B5816084BD85B5826085BDFC
:1018100085B5816085BD80916E00816080936E008A
:10182000109281008091810082608093810080917C
:10183000810081608093810080918000816080932D
:1018400080008091B10084608093B1008091B000ED
:1018500081608093B00080917A00846080937A00E8
:1018600080917A00826080937A0080917A00816012
:1018700080937A0080917A00806880937A00109239
:10188000C10061E088E00E94510861E081E00E94AF
:10189000510861E087E00E9451088091EF038C308D
:1018A00008F051C061E08DE00E9451088091EF0383
:1018B000E82FF0E09F01220F331FE20FF31FE65ED7
:1018C000FC4F9081907C9D6090831092F003109269
:1018D000F1036CE00E94AB172CE0829FB001112451
:1018E00040E050E09B01240F351FF901EE0FFF1F70
:1018F0002E0F3F1FF901E65EFC4F908196FD16C04A
:101900004F5F5F4F4C30510569F781110FC0109246
:10191000800082E080938100109285001092840004
:10192000B19A80916F00826080936F00E091EF0325
:10193000F0E0CF01880F991FE80FF91FE65EFC4F1A
:1019400080818064808361E086E00E94510862E0CB
:101950008EE00E948D0864E670E080E090E00E94D6
:10196000B80B60E08EE00E94510860E08FE00E94BA
:10197000510861E086E00E94510861E087E00E9422
:10198000510861E08AE00E94510860E087E00E940F
:10199000040860E08AE00E9404081092D3031092C9
:1019A000D2031092D1031092D0031092CF03109261
:1019B000CE038DE991E09093D5038093D403909169
:1019C000C403963108F058C02DEB30E03093CF03BC
:1019D0002093CE032BE931E03093D1032093D00341
:1019E0002CE231E03093D3032093D203409168007E
:1019F000983058F031E09E3008F430E021E0822F3A
:101A000001C0880F3A95EAF701C084E0842B8093E7
:101A10006800983038F09E3040F0963148F020E071
:101A200030E008C02DE630E005C02BE630E002C013
:101A30002CE630E03093CC032093CB03983030F485
:101A400081E001C0880F9A95EAF70EC0292F30E097
:101A50009E3018F42850310902C02E50310981E01F
:101A600001C0880F2A95EAF78093CD038091D403B3
:101A70009091D5030197F1F78091D2039091D30310
:101A8000892B49F1E0916902F0916A0243E0E83B59
:101A9000F40709F1309739F0A389B4899C918589BD
:101AA000809589238C938091D6038E7F8093D60373
:101AB000109268021092670288EB93E090936A029A
:101AC00080936902E091CB03F091CC0390818091E7
:101AD000CD03892B8083E0918D02F0918E0282E00C
:101AE0008083E0918902F0918A021082E0918B025A
:101AF000F0918C028FEC808310929502E09191021C
:101B0000F091920286E08083E0918F02F091900242
:101B1000808180618083E0918F02F09190028081CA
:101B200088608083E0918F02F091900280818068CC
:101B30008083E0918F02F091900280818F7D80837D
:101B400012E088E5282E82E0382E94EB892E912C25
:101B5000A12CB12C8EE00E94A10B8FE00E94A10B62
:101B60008EE00E94A10BBC01990F880B990B0E947B
:101B7000C51420E030E040EA50E40E94241520E043
:101B800030E048EC52E40E94241520E030E040E8C8
:101B90005AE30E9424150E945B173B018FE00E94CC
:101BA000A10BBC01990F880B990B0E94C51420E072
:101BB00030E040EA50E40E94241520E030E048EC98
:101BC00052E40E94241520E030E040E85AE30E94ED
:101BD00024150E945B1770936C0260936B0262E3A2
:101BE00070E080E090E00E94B80B0E94F20B6B0165
:101BF0007C010E94F20BDC01CB018C199D09AE091E
:101C0000BF09883E9340A105B10508F0A5C28DE744
:101C100092E00E941201892B61F38DE792E00E940D
:101C2000F000C82F8091AE039091AF03A091B00354
:101C3000B091B1030196A11DB11D8093AE039093A5
:101C4000AF03A093B003B093B103C43209F463C2ED
:101C5000E091AC03C53234F4CA3071F0CD3009F0F4
:101C600067C20AC0CA3241F0CC3209F061C2809129
:101C700099038C2780939903EF3008F03EC2F0E07F
:101C8000E556FC4F108280919A03882309F428C1FD
:101C900020919B033FEB320F822F022E000C990BF9
:101CA000363010F4C79707C02156263018F48755F0
:101CB000910901C0C097282F2295207F30919C0365
:101CC0004FEB430F832F032E000C990B463010F47B
:101CD000C79707C03156363018F48755910901C0AF
:101CE000C097820F909199038913F0C08091AD0342
:101CF000882309F402C28091B2039091B303019644
:101D00009093B3038093B20380918D0390918E03DF
:101D1000A0918F03B09190038093890390938A03DD
:101D2000A0938B03B0938C038091950390919603BD
:101D3000A0919703B091980380939103909392039D
:101D4000A0939303B09394038091AA03882309F48A
:101D500064C0813009F0D1C18091490390914A0358
:101D6000A0914B03B0914C0380934503909346039D
:101D7000A0934703B093480380915103909152037D
:101D8000A0915303B091540380934D0390934E035D
:101D9000A0934F03B09350038091590390915A033D
:101DA000A0915B03B0915C0380935503909356031D
:101DB000A0935703B09358038091610390916203FD
:101DC000A0916303B091640380935D0390935E03DD
:101DD000A0935F03B09360038091710390917203AD
:101DE000A0917303B091740380936D0390936E037D
:101DF000A0936F03B09370038091790390917A035D
:101E0000A0917B03B0917C0380937503909376033C
:101E1000A0937703B093780370C180916903909188
:101E20006A03A0916B03B0916C0380936503909358
:101E30006603A0936703B093680380914903909170
:101E40004A03A0914B03B0914C03809345039093B8
:101E50004603A0934703B0934803809159039091A0
:101E60005A03A0915B03B0915C0380935503909358
:101E70005603A0935703B093580380916103909148
:101E80006203A0916303B091640380935D03909318
:101E90005E03A0935F03B0936003809187039091EA
:101EA00088039093860380938503809181039091AA
:101EB0008203A0918303B091840380937D03909368
:101EC0007E03A0937F03B093800317C18091B40376
:101ED0009091B50301969093B5038093B4030DC11F
:101EE0009091AB0391111CC04BE953E0A7E3B1E023
:101EF000CA01FC012191CF01222309F438C33D918D
:101F00002317B9F3ADE3B1E0FA018191AF01882362
:101F100009F431C39D918917B9F31093AA03EDC059
:101F2000E091AA03E23009F4E8C080919B03882382
:101F300009F4E3C020E2E29FF0011124E92B31977C
:101F4000E932F10508F0D9C0EC5CFF4F0C94CB17D7
:101F50000E94E8066093490370934A0380934B0301
:101F600090934C030E94F20B60938D0370938E0349
:101F700080938F0390939003C0C091E0813409F067
:101F800099C099C00E9465076093590370935A03E2
:101F900080935B0390935C030E94F20B6093950324
:101FA000709396038093970390939803A6C083350C
:101FB00009F0A3C08091590390915A03A0915B034B
:101FC000B0915C03B095A095909581959F4FAF4FD0
:101FD000BF4F8093590390935A03A0935B03B09330
:101FE0005C038BC00E94650760936103709362037A
:101FF000809363039093640380C0873509F07DC0AC
:102000008091610390916203A0916303B091640396
:10201000B095A095909581959F4FAF4FBF4F8093FE
:10202000610390936203A0936303B093640365C05C
:102030000E94E806609371037093720380937303A8
:10204000909374035AC00E94E806609379037093DA
:102050007A0380937B0390937C034FC0EBE9F3E01A
:1020600020E030E0A901D19180ED8D0F8A30B0F4ED
:10207000AAE0B0E00E9401162D2FDD0F330B440BB8
:10208000550BDC01CB01820F931FA41FB51F9C01D0
:10209000AD012053310941095109E5CF2093510386
:1020A00030935203409353035093540326C091E05E
:1020B00081330CF490E09093AD031FC08BE993E063
:1020C0000E9498149927909388038093870315C0E2
:1020D0000E94E806609381037093820380938303D8
:1020E000909384030AC00E94E8066093690370938A
:1020F0006A0380936B0390936C038091AB038F5FB3
:102100008093AB031092AC0381E0CA3209F080E007
:1021100080939A037CCD1092AC031092AB03109283
:1021200099031093AA0310929A031092AD036FCDF6
:10213000EE3040F481E08E0F8093AC03F0E0E55682
:10214000FC4FC08380919A03811161CD80919903E6
:10215000C827C09399035BCD42E3641671043CF435
:1021600080916B0290916C02C2970CF4D3C161E034
:1021700087E00E94040880E00E94A10B24EB30E07D
:10218000DC010E94D1172FEF33E040E050E00E94C5
:10219000E215F901E03252E0F5070CF03DC0F7FD21
:1021A00006C0E53BF1052CF0E4EBF0E002C0E0E016
:1021B000F0E08091F003C8E8CC2ED12CC81AD108E9
:1021C00087FDD394D601AA0FBB1FAA0FBB1F6D01B9
:1021D000BB0FEE08FF088091F1039101281B310924
:1021E00087FD3395220F331F220F331F2901330F31
:1021F00066087708A30192012C193D094E095F0971
:10220000DF010E940C16A50194010E94E215C20E86
:10221000D31EE41EF51EF6012091EF032C3088F545
:102220008091F00348E850E0481B510987FD539521
:10223000CA01880F991F880F991FE817F90784F0C2
:102240008091F103B101681B710987FD7395660FD9
:10225000771F660F771FCF016E177F070CF4CB0136
:102260000297880F991F6FB7F89430E0A901440FC7
:10227000551F240F351FF901E65EFC4F92838183C1
:102280006FBF62E370E080E090E00E94B80B61E015
:1022900088E00E94040861E087E00E94040861E091
:1022A0008AE00E9404080E94A80580E00E94B00510
:1022B00063E471E087ED93E00E94620381E00E9495
:1022C000B00562E571E087ED93E00E94620364E689
:1022D00070E080E090E00E94B80B0E94A80562E6E2
:1022E00071E087ED93E00E94620364E670E080E0B5
:1022F00090E00E94B80B44EF51E060E070E087E1AD
:1023000094E00E942F0968EC70E080E090E00E9469
:10231000B80B4CE251E060E070E085E594E00E948B
:102320002F0968EC70E080E090E00E94B80B44E672
:1023300050E060E070E087E994E00E942F0965E0DA
:1023400070E080E090E00E94B80BC0905503D09000
:102350005603E0905703F090580340905D0350906F
:102360005E0360905F037090600380919103909191
:102370009203A0919303B09194038F3F9F4FAF4F6F
:10238000BF4F11F00E94F20B8FEFC81689ECD806F0
:102390008AE9E8068BE3F806E1F0C701B6010E947E
:1023A000C51420E034E244E759E40E94E9167B01B9
:1023B000082FD92FC301B2010E94C51420E034E2D6
:1023C00044E759E40E94E916762EC72ED82EC92F6D
:1023D00009C0E12CF12C0AE7D4E4712CC12C8AE766
:1023E000D82EC4E461E771E08DE792E00E946203B9
:1023F00064E670E080E090E00E94B80B6CE771E06A
:102400008DE792E00E94620362E971E08DE792E05D
:102410000E94620364E670E080E090E00E94B80BE6
:102420006EE971E08DE792E00E94620364EB71E077
:102430008DE792E00E94620364E670E080E090E045
:102440000E94B80B6FEB71E08DE792E00E9462038F
:1024500064EB71E08DE792E00E94620368EC70E04B
:1024600080E090E00E94B80B65ED71E08DE792E0AE
:102470000E94620320E030E04AE754E4B701802F75
:102480009D2F0E94BE14811104C0E12CF12C00E0AC
:10249000D0E046E0B701802F9D2F0E94C10561EE7C
:1024A00071E08DE792E00E94620320E030E04AE7AD
:1024B00054E4672D7C2D8D2D9C2F0E94BE1481111C
:1024C00004C0712CC12CD12CC0E046E0672D7C2DBE
:1024D0008D2D9C2F0E94C10568EC70E080E090E09B
:1024E0000E94B80B6AE18DE792E00E944A016FEE0C
:1024F00071E08DE792E00E944D0368EC70E080E0AF
:1025000090E00E94B80B6FEE71E08DE792E00E94C0
:102510004D032AC060E087E00E94040862E370E097
:1025200080E090E00E94B80B60E087E00E94040821
:1025300060E08AE00E94040860E088E00E940408ED
:102540000E94A80580E00E94B00562EF71E087ED6F
:1025500093E00E94620381E00E94B0056AE072E0AD
:1025600087ED93E00E9462030E94B901F3CA91E0F3
:102570009093AA03C2CD1092AA03BFCD80913F03CE
:10258000909140030E9484188DE191E09093B903EB
:102590008093B8038091690290916A02885B9340AE
:1025A00071F4E091CB03F091CC0390818091CD0345
:1025B00080958923808310926A021092690208959F
:1025C0001092800210927F0288EE93E0A0E0B0E0CB
:1025D0008093810290938202A0938302B09384023D
:1025E0008BE091E090937E0280937D0285EC90E0F9
:1025F00090938A028093890284EC90E090938C02FD
:1026000080938B0280EC90E090938E0280938D02F9
:1026100081EC90E09093900280938F0282EC90E0A6
:10262000909392028093910286EC90E090939402B2
:102630008093930210929602109297021092980241
:102640001092990280913E038C30A0F491E0980F93
:1026500090933E038093EF0390E0FC01EE0FFF1F89
:102660008E0F9F1FFC01E65EFC4F88EB9BE0928380
:10267000818303C08FEF8093EF031092DA031092EF
:10268000D9038FE291E09093D8038093D7038CE035
:102690008093DB038FEF8093DC038BE08093DD037B
:1026A00085E08093DE0384E08093DF0383E0809302
:1026B000E00382E08093E1031092E2031092E303CF
:1026C0001092E4031092E5031092E60361E080E1CA
:1026D0000E948D081092BB031092BA0388EE93E01B
:1026E000A0E0B0E08093BC039093BD03A093BE0331
:1026F000B093BF038DE191E09093B9038093B80349
:102700001092CF031092CE031092D1031092D003F7
:102710001092D3031092D2031092D5031092D403D7
:102720006091D6036E7F6D7F6093D603669561706E
:1027300081E068278AE00E94040861E08AE00E9444
:102740005108EBE0F1E0E491E093C803E7EFF0E03B
:10275000E491F0E0EE0FFF1FED51FF4F8591949152
:102760009093CA038093C90360E089E00E945108F6
:102770008091D60381FD04C061E089E00E940408D5
:1027800089E08093C403EAE0F1E0E491E093C503BB
:10279000E6EFF0E0E491F0E0EE0FFF1FE752FF4FAD
:1027A000859194919093C7038093C6034FEF5FEF99
:1027B000BA014093450350934603609347037093D7
:1027C000480310924D0310924E0310924F03109243
:1027D00050038FEF99ECAAE9BBE3809355039093E4
:1027E0005603A0935703B093580380935D039093CF
:1027F0005E03A0935F03B09360038093650390939F
:102800006603A0936703B093680380936D0390936E
:102810006E03A0936F03B09370038093750390933E
:102820007603A0937703B093780340937D0350938E
:102830007E0360937F03709380038FEF90E090930B
:102840008603809385034093890350938A036093A2
:102850008B0370938C034093910350939203609386
:102860009303709394031092990310929A0382E059
:102870008093AA031092AB031092AC031092AD03A5
:102880001092AE031092AF031092B0031092B103F6
:102890001092B3031092B2031092B5031092B403D6
:1028A00010929B031092400310923F031092420338
:1028B00010924103109244031092430361E070E0D0
:1028C00080E090E00E940D19009789F090934003FA
:1028D00080933F03109242031092410320914303DF
:1028E00030914403232BC1F4FC01108215C0809168
:1028F0003F0390914003009711F00E9484181092BA
:10290000400310923F03109244031092430310922D
:10291000420310924103089510924403109243031E
:1029200061EF71E080913F03909140030C94E119B5
:10293000FC0188279927E89421912032E9F3293076
:1029400010F02E30C8F32B3241F02D3239F4689458
:1029500004C00E94B614820F911D219120532A3089
:10296000C0F31EF4909581959F4F08957AE0979F4C
:10297000902D879F802D910D112408950E940015A0
:1029800008F481E00895E89409C097FB3EF490951F
:102990008095709561957F4F8F4F9F4F9923A9F038
:1029A000F92F96E9BB279395F695879577956795C7
:1029B000B795F111F8CFFAF4BB0F11F460FF1BC00B
:1029C0006F5F7F4F8F4F9F4F16C0882311F096E99E
:1029D00011C0772321F09EE8872F762F05C066234C
:1029E00071F096E8862F70E060E02AF09A95660F05
:1029F000771F881FDAF7880F9695879597F90895BE
:102A0000990F0008550FAA0BE0E8FEEF16161706FF
:102A1000E807F907C0F012161306E407F50798F067
:102A2000621B730B840B950B39F40A2661F0232B80
:102A3000242B252B21F408950A2609F4A140A695FC
:102A40008FEF811D811D08950E9437150C94A815E4
:102A50000E949A1538F00E94A11520F0952311F0DC
:102A60000C9491150C94971511240C94DC150E946C
:102A7000B91570F3959FC1F3950F50E0551F629FF4
:102A8000F001729FBB27F00DB11D639FAA27F00DC7
:102A9000B11DAA1F649F6627B00DA11D661F829FEE
:102AA0002227B00DA11D621F739FB00DA11D621FD3
:102AB000839FA00D611D221F749F3327A00D611DF0
:102AC000231F849F600D211D822F762F6A2F1124D2
:102AD0009F5750409AF0F1F088234AF0EE0FFF1F05
:102AE000BB1F661F771F881F91505040A9F79E3F5C
:102AF000510580F00C9491150C94DC155F3FE4F3C4
:102B0000983ED4F3869577956795B795F795E795B1
:102B10009F5FC1F7FE2B880F911D9695879597F9BA
:102B2000089597F99F6780E870E060E008959FEF4F
:102B300080EC089500240A94161617061806090654
:102B4000089500240A941216130614060506089523
:102B5000092E0394000C11F4882352F0BB0F40F4AB
:102B6000BF2B11F460FF04C06F5F7F4F8F4F9F4FEB
:102B7000089557FD9058440F551F59F05F3F71F06D
:102B80004795880F97FB991F61F09F3F79F08795D4
:102B90000895121613061406551FF2CF4695F1DF5D
:102BA00008C0161617061806991FF1CF86957105ED
:102BB000610508940895E894BB2766277727CB0121
:102BC00097F90895052E97FB1EF400940E94F915BD
:102BD00057FD07D00E944B1607FC03D04EF40C940F
:102BE000F91550954095309521953F4F4F4F5F4FC8
:102BF000089590958095709561957F4F8F4F9F4F69
:102C000008950E946D16A59F900DB49F900DA49FEE
:102C1000800D911D11240895B7FF0C9401160E9498
:102C20000116821B930B08952F923F924F925F9251
:102C30006F927F928F929F92AF92BF92CF92DF92CC
:102C4000EF92FF920F931F93CF93DF93CDB7DEB731
:102C5000CA1BDB0B0FB6F894DEBF0FBECDBF0994C5
:102C60002A88398848885F846E847D848C849B841C
:102C7000AA84B984C884DF80EE80FD800C811B812A
:102C8000AA81B981CE0FD11D0FB6F894DEBF0FBE59
:102C9000CDBFED010895A1E21A2EAA1BBB1BFD01B9
:102CA0000DC0AA1FBB1FEE1FFF1FA217B307E4072B
:102CB000F50720F0A21BB30BE40BF50B661F771F83
:102CC000881F991F1A9469F7609570958095909563
:102CD0009B01AC01BD01CF010895A29FB001B39F3C
:102CE000C001A39F700D811D1124911DB29F700D15
:102CF000811D1124911D08955058BB27AA270E94B9
:102D000094160C94A8150E949A1538F00E94A115EB
:102D100020F039F49F3F19F426F40C9497150EF423
:102D2000E095E7FB0C949115E92F0E94B91558F333
:102D3000BA17620773078407950720F079F4A6F5A0
:102D40000C94DB150EF4E0950B2EBA2FA02D0B0181
:102D5000B90190010C01CA01A0011124FF27591BE0
:102D600099F0593F50F4503E68F11A16F040A22FE6
:102D7000232F342F4427585FF3CF46953795279557
:102D8000A795F0405395C9F77EF41F16BA0B620B56
:102D9000730B840BBAF09150A1F0FF0FBB1F661F9D
:102DA000771F881FC2F70EC0BA0F621F731F841FE0
:102DB00048F4879577956795B795F7959E3F08F006
:102DC000B0CF9395880F08F09927EE0F97958795C8
:102DD00008950E94FD160C94A8150E94A11558F0A4
:102DE0000E949A1540F029F45F3F29F00C94911548
:102DF00051110C94DC150C9497150E94B91568F3C9
:102E00009923B1F3552391F3951B550BBB27AA27A3
:102E100062177307840738F09F5F5F4F220F331FDD
:102E2000441FAA1FA9F335D00E2E3AF0E0E832D0A5
:102E300091505040E695001CCAF72BD0FE2F29D0A8
:102E4000660F771F881FBB1F261737074807AB077A
:102E5000B0E809F0BB0B802DBF01FF2793585F4FEF
:102E60003AF09E3F510578F00C9491150C94DC15C6
:102E70005F3FE4F3983ED4F3869577956795B795D1
:102E8000F7959F5FC9F7880F911D9695879597F9DC
:102E90000895E1E0660F771F881FBB1F6217730755
:102EA0008407BA0720F0621B730B840BBA0BEE1F6A
:102EB00088F7E09508950E9462176894B1110C9408
:102EC000DC1508950E94C11588F09F5798F0B92F1E
:102ED0009927B751B0F0E1F0660F771F881F991F4F
:102EE0001AF0BA95C9F714C0B13091F00E94DB1501
:102EF000B1E008950C94DB15672F782F8827B85F11
:102F000039F0B93FCCF3869577956795B395D9F7A6
:102F10003EF490958095709561957F4F8F4F9F4FB0
:102F200008950E94001508F48FEF08950E9400157F
:102F3000880B990B0895DB018F939F930E940116D4
:102F4000BF91AF91A29F800D911DA39F900DB29F45
:102F5000900D11240895991B79E004C0991F9617CC
:102F600008F0961B881F7A95C9F78095089597FBFE
:102F7000072E16F4009407D077FD09D00E94D817C9
:102F800007FC05D03EF4909581959F4F089570956C
:102F900061957F4F0895EE0FFF1F0590F491E02D8E
:102FA00009940E946D16B7FF0895821B930B089534
:102FB000AA1BBB1B51E107C0AA1FBB1FA617B7075F
:102FC00010F0A61BB70B881F991F5A95A9F780957B
:102FD0009095BC01CD0108950F931F93CF93DF937C
:102FE0008230910510F482E090E0E091FE03F091D0
:102FF000FF0320E030E0A0E0B0E0309719F140811D
:1030000051810281138148175907C8F08417950729
:1030100069F4109731F012960C93129713961C9343
:1030200027C00093FE031093FF0322C02115310532
:1030300019F04217530718F49A01BD01EF01DF019F
:10304000F801DBCF21153105F9F0281B390B2430AD
:10305000310580F48A819B816115710521F0FB01A6
:103060009383828304C09093FF038093FE03FE0149
:10307000329644C0FE01E20FF31F819391932250D8
:103080003109398328833AC02091FC033091FD0334
:10309000232B41F420910301309104013093FD036F
:1030A0002093FC032091010130910201211531058B
:1030B00041F42DB73EB74091050150910601241B04
:1030C000350BE091FC03F091FD03E217F307A0F448
:1030D0002E1B3F0B2817390778F0AC014E5F5F4F6E
:1030E0002417350748F04E0F5F1F5093FD034093A0
:1030F000FC038193919302C0E0E0F0E0CF01DF9107
:10310000CF911F910F910895CF93DF93009709F40A
:1031100081C0FC01329713821282A091FE03B0910C
:10312000FF03109781F420813181820F931F20913A
:10313000FC033091FD032817390751F5F093FD0387
:10314000E093FC0367C0ED0120E030E0CE17DF071D
:1031500040F44A815B819E0141155105F1F0EA017D
:10316000F5CFD383C28340815181840F951FC81747
:10317000D90759F488819981840F951F029691830C
:1031800080838A819B81938382832115310529F471
:10319000F093FF03E093FE033DC0E901FB83EA8364
:1031A00049915991C40FD51FEC17FD0761F4808137
:1031B0009181840F951F0296E9019983888382810A
:1031C00093819B838A83E0E0F0E012968D919C913D
:1031D0001397009719F0FD01DC01F7CF8D919C91B9
:1031E00011979D012E5F3F4F820F931F2091FC038B
:1031F0003091FD032817390769F4309729F41092AC
:10320000FF031092FE0302C013821282B093FD03EB
:10321000A093FC03DF91CF910895A0E0B0E0E3E13B
:10322000F9E10C941816EC01009721F4CB010E94EF
:10323000EC17B4C0FC01E60FF71F9C0122503109C6
:10324000E217F30708F4A8C0D9010D911C9111975A
:1032500006171707B0F00530110508F49BC0C80128
:1032600004978617970708F495C002501109061BAA
:10327000170B019311936D937C93CF010E948418D7
:1032800089C05B01A01AB10A4C01800E911EA09169
:10329000FE03B091FF03612C712CE12CF12C1097EF
:1032A00009F446C08D919C911197A815B905B1F507
:1032B0006C0142E0C40ED11CCA14DB0478F14C014D
:1032C0008A189B08640142E0C40ED11C1296BC907F
:1032D00012971396AC91B5E0CB16D10440F0B282B0
:1032E000A38391828082D9016D937C9309C00E5F84
:1032F0001F4F800F911FF90191838083EB2DFA2FCF
:10330000E114F10431F0D7011396FC93EE93129778
:1033100041C0F093FF03E093FE033CC068167906BA
:1033200008F43C017D0112960D90BC91A02DB7CF01
:103330008091FC039091FD0388169906E1F46616CE
:103340007706C8F48091010190910201009741F441
:103350008DB79EB74091050150910601841B950BD6
:10336000E817F907C8F4F093FD03E093FC03F901B3
:10337000718360830FC0CB010E94EC177C01009722
:1033800059F0A801BE010E94D819CE010E948418EC
:10339000C70104C0CE0102C080E090E0CDB7DEB727
:1033A000EEE00C94341681E090E0F8940C94E81967
:1033B000FB01DC0102C001900D9241505040D8F752
:1033C0000895FB01DC0101900D920020E1F70895C2
:1033D00010E0CCE8D0E004C0FE010E94CB1721969B
:0A33E000CD38D107C9F7F894FFCFEC
:1033EA00FF000000048000000000004A01B700E16D
:1033FA000097011201F000040100000000DC01B78F
:10340A00006602DB012C024402C30100000000B680
:10341A0004B700660265024750524D4300475047C1
:10342A0047410020474153204445544543544544AD
:10343A002000204E4F5420534146452048455245CE
:10344A00200053656E64696E6720534D532E2E2EED
:10345A000041542B434D47463D310D0041542B4307
:10346A004D47533D223934343239313133343822DD
:10347A000D0047415320414C455254210D004154FF
:10348A002B434D47533D22373031303834323332B3
:10349A0032220D0047415320414C4552540D004100
:1034AA00542B434D47533D22363338343238393959
:1034BA003130220D004C61746974756465203D20B9
:1034CA0000204C6F6E676974756465203D20000D9D
:1034DA000A00202020204E4F2047415320444554C3
:1034EA0045435445442020202000202020414C4CB4
:1034FA002053414645202020006E616E00696E66A9
:06350A00006F7666000070
:00000001FF
